{"contracts/Demo2-LINK.sol":{"PriceConsumerV3":{"abi":[{"inputs":[],"stateMutability":"nonpayable","type":"constructor"},{"inputs":[{"internalType":"int256","name":"BTC","type":"int256"},{"internalType":"int256","name":"ETH","type":"int256"}],"name":"average","outputs":[{"internalType":"int256","name":"","type":"int256"}],"stateMutability":"view","type":"function"},{"inputs":[],"name":"getLatestPrice1","outputs":[{"internalType":"int256","name":"","type":"int256"}],"stateMutability":"view","type":"function"},{"inputs":[],"name":"getLatestPrice2","outputs":[{"internalType":"int256","name":"","type":"int256"}],"stateMutability":"view","type":"function"},{"inputs":[],"name":"getLatestPrice3","outputs":[{"internalType":"int256","name":"","type":"int256"}],"stateMutability":"view","type":"function"}],"devdoc":{"kind":"dev","methods":{},"version":1},"evm":{"bytecode":{"linkReferences":{},"object":"608060405234801561001057600080fd5b5073a39434a63a52e749f02807ae27335515ba4b07f76000806101000a81548173ffffffffffffffffffffffffffffffffffffffff021916908373ffffffffffffffffffffffffffffffffffffffff16021790555073d4a33860578de61dbabdc8bfdb98fd742fa7028e600160006101000a81548173ffffffffffffffffffffffffffffffffffffffff021916908373ffffffffffffffffffffffffffffffffffffffff160217905550730d79df66be487753b02d015fb622ded7f0e9798d600260006101000a81548173ffffffffffffffffffffffffffffffffffffffff021916908373ffffffffffffffffffffffffffffffffffffffff1602179055506106038061011e6000396000f3fe608060405234801561001057600080fd5b506004361061004c5760003560e01c806347cec961146100515780637f0bb2921461006f578063ba59bda11461009f578063c03010ee146100bd575b600080fd5b6100596100db565b604051610066919061032d565b60405180910390f35b61008960048036038101906100849190610379565b610188565b604051610096919061032d565b60405180910390f35b6100a76101b6565b6040516100b4919061032d565b60405180910390f35b6100c5610265565b6040516100d2919061032d565b60405180910390f35b60008060008060008060008054906101000a900473ffffffffffffffffffffffffffffffffffffffff1673ffffffffffffffffffffffffffffffffffffffff1663feaf968c6040518163ffffffff1660e01b815260040160a060405180830381865afa15801561014f573d6000803e3d6000fd5b505050506040513d601f19601f820116820180604052508101906101739190610446565b94509450945094509450839550505050505090565b600060036005548385181861019d919061051f565b600554838516166101ae9190610589565b905092915050565b600080600080600080600260009054906101000a900473ffffffffffffffffffffffffffffffffffffffff1673ffffffffffffffffffffffffffffffffffffffff1663feaf968c6040518163ffffffff1660e01b815260040160a060405180830381865afa15801561022c573d6000803e3d6000fd5b505050506040513d601f19601f820116820180604052508101906102509190610446565b94509450945094509450839550505050505090565b600080600080600080600160009054906101000a900473ffffffffffffffffffffffffffffffffffffffff1673ffffffffffffffffffffffffffffffffffffffff1663feaf968c6040518163ffffffff1660e01b815260040160a060405180830381865afa1580156102db573d6000803e3d6000fd5b505050506040513d601f19601f820116820180604052508101906102ff9190610446565b94509450945094509450839550505050505090565b6000819050919050565b61032781610314565b82525050565b6000602082019050610342600083018461031e565b92915050565b600080fd5b61035681610314565b811461036157600080fd5b50565b6000813590506103738161034d565b92915050565b600080604083850312156103905761038f610348565b5b600061039e85828601610364565b92505060206103af85828601610364565b9150509250929050565b600069ffffffffffffffffffff82169050919050565b6103d8816103b9565b81146103e357600080fd5b50565b6000815190506103f5816103cf565b92915050565b60008151905061040a8161034d565b92915050565b6000819050919050565b61042381610410565b811461042e57600080fd5b50565b6000815190506104408161041a565b92915050565b600080600080600060a0868803121561046257610461610348565b5b6000610470888289016103e6565b9550506020610481888289016103fb565b945050604061049288828901610431565b93505060606104a388828901610431565b92505060806104b4888289016103e6565b9150509295509295909350565b7f4e487b7100000000000000000000000000000000000000000000000000000000600052601260045260246000fd5b7f4e487b7100000000000000000000000000000000000000000000000000000000600052601160045260246000fd5b600061052a82610314565b915061053583610314565b925082610545576105446104c1565b5b600160000383147f80000000000000000000000000000000000000000000000000000000000000008314161561057e5761057d6104f0565b5b828205905092915050565b600061059482610314565b915061059f83610314565b9250828201905082811215600083121683821260008412151617156105c7576105c66104f0565b5b9291505056fea2646970667358221220c1e0b24d4b5b20211047abc5897a824cc4b072e0d885503a45dc8b6577d6496064736f6c63430008110033","opcodes":"PUSH1 0x80 PUSH1 0x40 MSTORE CALLVALUE DUP1 ISZERO PUSH2 0x10 JUMPI PUSH1 0x0 DUP1 REVERT JUMPDEST POP PUSH20 0xA39434A63A52E749F02807AE27335515BA4B07F7 PUSH1 0x0 DUP1 PUSH2 0x100 EXP DUP2 SLOAD DUP2 PUSH20 0xFFFFFFFFFFFFFFFFFFFFFFFFFFFFFFFFFFFFFFFF MUL NOT AND SWAP1 DUP4 PUSH20 0xFFFFFFFFFFFFFFFFFFFFFFFFFFFFFFFFFFFFFFFF AND MUL OR SWAP1 SSTORE POP PUSH20 0xD4A33860578DE61DBABDC8BFDB98FD742FA7028E PUSH1 0x1 PUSH1 0x0 PUSH2 0x100 EXP DUP2 SLOAD DUP2 PUSH20 0xFFFFFFFFFFFFFFFFFFFFFFFFFFFFFFFFFFFFFFFF MUL NOT AND SWAP1 DUP4 PUSH20 0xFFFFFFFFFFFFFFFFFFFFFFFFFFFFFFFFFFFFFFFF AND MUL OR SWAP1 SSTORE POP PUSH20 0xD79DF66BE487753B02D015FB622DED7F0E9798D PUSH1 0x2 PUSH1 0x0 PUSH2 0x100 EXP DUP2 SLOAD DUP2 PUSH20 0xFFFFFFFFFFFFFFFFFFFFFFFFFFFFFFFFFFFFFFFF MUL NOT AND SWAP1 DUP4 PUSH20 0xFFFFFFFFFFFFFFFFFFFFFFFFFFFFFFFFFFFFFFFF AND MUL OR SWAP1 SSTORE POP PUSH2 0x603 DUP1 PUSH2 0x11E PUSH1 0x0 CODECOPY PUSH1 0x0 RETURN INVALID PUSH1 0x80 PUSH1 0x40 MSTORE CALLVALUE DUP1 ISZERO PUSH2 0x10 JUMPI PUSH1 0x0 DUP1 REVERT JUMPDEST POP PUSH1 0x4 CALLDATASIZE LT PUSH2 0x4C JUMPI PUSH1 0x0 CALLDATALOAD PUSH1 0xE0 SHR DUP1 PUSH4 0x47CEC961 EQ PUSH2 0x51 JUMPI DUP1 PUSH4 0x7F0BB292 EQ PUSH2 0x6F JUMPI DUP1 PUSH4 0xBA59BDA1 EQ PUSH2 0x9F JUMPI DUP1 PUSH4 0xC03010EE EQ PUSH2 0xBD JUMPI JUMPDEST PUSH1 0x0 DUP1 REVERT JUMPDEST PUSH2 0x59 PUSH2 0xDB JUMP JUMPDEST PUSH1 0x40 MLOAD PUSH2 0x66 SWAP2 SWAP1 PUSH2 0x32D JUMP JUMPDEST PUSH1 0x40 MLOAD DUP1 SWAP2 SUB SWAP1 RETURN JUMPDEST PUSH2 0x89 PUSH1 0x4 DUP1 CALLDATASIZE SUB DUP2 ADD SWAP1 PUSH2 0x84 SWAP2 SWAP1 PUSH2 0x379 JUMP JUMPDEST PUSH2 0x188 JUMP JUMPDEST PUSH1 0x40 MLOAD PUSH2 0x96 SWAP2 SWAP1 PUSH2 0x32D JUMP JUMPDEST PUSH1 0x40 MLOAD DUP1 SWAP2 SUB SWAP1 RETURN JUMPDEST PUSH2 0xA7 PUSH2 0x1B6 JUMP JUMPDEST PUSH1 0x40 MLOAD PUSH2 0xB4 SWAP2 SWAP1 PUSH2 0x32D JUMP JUMPDEST PUSH1 0x40 MLOAD DUP1 SWAP2 SUB SWAP1 RETURN JUMPDEST PUSH2 0xC5 PUSH2 0x265 JUMP JUMPDEST PUSH1 0x40 MLOAD PUSH2 0xD2 SWAP2 SWAP1 PUSH2 0x32D JUMP JUMPDEST PUSH1 0x40 MLOAD DUP1 SWAP2 SUB SWAP1 RETURN JUMPDEST PUSH1 0x0 DUP1 PUSH1 0x0 DUP1 PUSH1 0x0 DUP1 PUSH1 0x0 DUP1 SLOAD SWAP1 PUSH2 0x100 EXP SWAP1 DIV PUSH20 0xFFFFFFFFFFFFFFFFFFFFFFFFFFFFFFFFFFFFFFFF AND PUSH20 0xFFFFFFFFFFFFFFFFFFFFFFFFFFFFFFFFFFFFFFFF AND PUSH4 0xFEAF968C PUSH1 0x40 MLOAD DUP2 PUSH4 0xFFFFFFFF AND PUSH1 0xE0 SHL DUP2 MSTORE PUSH1 0x4 ADD PUSH1 0xA0 PUSH1 0x40 MLOAD DUP1 DUP4 SUB DUP2 DUP7 GAS STATICCALL ISZERO DUP1 ISZERO PUSH2 0x14F JUMPI RETURNDATASIZE PUSH1 0x0 DUP1 RETURNDATACOPY RETURNDATASIZE PUSH1 0x0 REVERT JUMPDEST POP POP POP POP PUSH1 0x40 MLOAD RETURNDATASIZE PUSH1 0x1F NOT PUSH1 0x1F DUP3 ADD AND DUP3 ADD DUP1 PUSH1 0x40 MSTORE POP DUP2 ADD SWAP1 PUSH2 0x173 SWAP2 SWAP1 PUSH2 0x446 JUMP JUMPDEST SWAP5 POP SWAP5 POP SWAP5 POP SWAP5 POP SWAP5 POP DUP4 SWAP6 POP POP POP POP POP POP SWAP1 JUMP JUMPDEST PUSH1 0x0 PUSH1 0x3 PUSH1 0x5 SLOAD DUP4 DUP6 XOR XOR PUSH2 0x19D SWAP2 SWAP1 PUSH2 0x51F JUMP JUMPDEST PUSH1 0x5 SLOAD DUP4 DUP6 AND AND PUSH2 0x1AE SWAP2 SWAP1 PUSH2 0x589 JUMP JUMPDEST SWAP1 POP SWAP3 SWAP2 POP POP JUMP JUMPDEST PUSH1 0x0 DUP1 PUSH1 0x0 DUP1 PUSH1 0x0 DUP1 PUSH1 0x2 PUSH1 0x0 SWAP1 SLOAD SWAP1 PUSH2 0x100 EXP SWAP1 DIV PUSH20 0xFFFFFFFFFFFFFFFFFFFFFFFFFFFFFFFFFFFFFFFF AND PUSH20 0xFFFFFFFFFFFFFFFFFFFFFFFFFFFFFFFFFFFFFFFF AND PUSH4 0xFEAF968C PUSH1 0x40 MLOAD DUP2 PUSH4 0xFFFFFFFF AND PUSH1 0xE0 SHL DUP2 MSTORE PUSH1 0x4 ADD PUSH1 0xA0 PUSH1 0x40 MLOAD DUP1 DUP4 SUB DUP2 DUP7 GAS STATICCALL ISZERO DUP1 ISZERO PUSH2 0x22C JUMPI RETURNDATASIZE PUSH1 0x0 DUP1 RETURNDATACOPY RETURNDATASIZE PUSH1 0x0 REVERT JUMPDEST POP POP POP POP PUSH1 0x40 MLOAD RETURNDATASIZE PUSH1 0x1F NOT PUSH1 0x1F DUP3 ADD AND DUP3 ADD DUP1 PUSH1 0x40 MSTORE POP DUP2 ADD SWAP1 PUSH2 0x250 SWAP2 SWAP1 PUSH2 0x446 JUMP JUMPDEST SWAP5 POP SWAP5 POP SWAP5 POP SWAP5 POP SWAP5 POP DUP4 SWAP6 POP POP POP POP POP POP SWAP1 JUMP JUMPDEST PUSH1 0x0 DUP1 PUSH1 0x0 DUP1 PUSH1 0x0 DUP1 PUSH1 0x1 PUSH1 0x0 SWAP1 SLOAD SWAP1 PUSH2 0x100 EXP SWAP1 DIV PUSH20 0xFFFFFFFFFFFFFFFFFFFFFFFFFFFFFFFFFFFFFFFF AND PUSH20 0xFFFFFFFFFFFFFFFFFFFFFFFFFFFFFFFFFFFFFFFF AND PUSH4 0xFEAF968C PUSH1 0x40 MLOAD DUP2 PUSH4 0xFFFFFFFF AND PUSH1 0xE0 SHL DUP2 MSTORE PUSH1 0x4 ADD PUSH1 0xA0 PUSH1 0x40 MLOAD DUP1 DUP4 SUB DUP2 DUP7 GAS STATICCALL ISZERO DUP1 ISZERO PUSH2 0x2DB JUMPI RETURNDATASIZE PUSH1 0x0 DUP1 RETURNDATACOPY RETURNDATASIZE PUSH1 0x0 REVERT JUMPDEST POP POP POP POP PUSH1 0x40 MLOAD RETURNDATASIZE PUSH1 0x1F NOT PUSH1 0x1F DUP3 ADD AND DUP3 ADD DUP1 PUSH1 0x40 MSTORE POP DUP2 ADD SWAP1 PUSH2 0x2FF SWAP2 SWAP1 PUSH2 0x446 JUMP JUMPDEST SWAP5 POP SWAP5 POP SWAP5 POP SWAP5 POP SWAP5 POP DUP4 SWAP6 POP POP POP POP POP POP SWAP1 JUMP JUMPDEST PUSH1 0x0 DUP2 SWAP1 POP SWAP2 SWAP1 POP JUMP JUMPDEST PUSH2 0x327 DUP2 PUSH2 0x314 JUMP JUMPDEST DUP3 MSTORE POP POP JUMP JUMPDEST PUSH1 0x0 PUSH1 0x20 DUP3 ADD SWAP1 POP PUSH2 0x342 PUSH1 0x0 DUP4 ADD DUP5 PUSH2 0x31E JUMP JUMPDEST SWAP3 SWAP2 POP POP JUMP JUMPDEST PUSH1 0x0 DUP1 REVERT JUMPDEST PUSH2 0x356 DUP2 PUSH2 0x314 JUMP JUMPDEST DUP2 EQ PUSH2 0x361 JUMPI PUSH1 0x0 DUP1 REVERT JUMPDEST POP JUMP JUMPDEST PUSH1 0x0 DUP2 CALLDATALOAD SWAP1 POP PUSH2 0x373 DUP2 PUSH2 0x34D JUMP JUMPDEST SWAP3 SWAP2 POP POP JUMP JUMPDEST PUSH1 0x0 DUP1 PUSH1 0x40 DUP4 DUP6 SUB SLT ISZERO PUSH2 0x390 JUMPI PUSH2 0x38F PUSH2 0x348 JUMP JUMPDEST JUMPDEST PUSH1 0x0 PUSH2 0x39E DUP6 DUP3 DUP7 ADD PUSH2 0x364 JUMP JUMPDEST SWAP3 POP POP PUSH1 0x20 PUSH2 0x3AF DUP6 DUP3 DUP7 ADD PUSH2 0x364 JUMP JUMPDEST SWAP2 POP POP SWAP3 POP SWAP3 SWAP1 POP JUMP JUMPDEST PUSH1 0x0 PUSH10 0xFFFFFFFFFFFFFFFFFFFF DUP3 AND SWAP1 POP SWAP2 SWAP1 POP JUMP JUMPDEST PUSH2 0x3D8 DUP2 PUSH2 0x3B9 JUMP JUMPDEST DUP2 EQ PUSH2 0x3E3 JUMPI PUSH1 0x0 DUP1 REVERT JUMPDEST POP JUMP JUMPDEST PUSH1 0x0 DUP2 MLOAD SWAP1 POP PUSH2 0x3F5 DUP2 PUSH2 0x3CF JUMP JUMPDEST SWAP3 SWAP2 POP POP JUMP JUMPDEST PUSH1 0x0 DUP2 MLOAD SWAP1 POP PUSH2 0x40A DUP2 PUSH2 0x34D JUMP JUMPDEST SWAP3 SWAP2 POP POP JUMP JUMPDEST PUSH1 0x0 DUP2 SWAP1 POP SWAP2 SWAP1 POP JUMP JUMPDEST PUSH2 0x423 DUP2 PUSH2 0x410 JUMP JUMPDEST DUP2 EQ PUSH2 0x42E JUMPI PUSH1 0x0 DUP1 REVERT JUMPDEST POP JUMP JUMPDEST PUSH1 0x0 DUP2 MLOAD SWAP1 POP PUSH2 0x440 DUP2 PUSH2 0x41A JUMP JUMPDEST SWAP3 SWAP2 POP POP JUMP JUMPDEST PUSH1 0x0 DUP1 PUSH1 0x0 DUP1 PUSH1 0x0 PUSH1 0xA0 DUP7 DUP9 SUB SLT ISZERO PUSH2 0x462 JUMPI PUSH2 0x461 PUSH2 0x348 JUMP JUMPDEST JUMPDEST PUSH1 0x0 PUSH2 0x470 DUP9 DUP3 DUP10 ADD PUSH2 0x3E6 JUMP JUMPDEST SWAP6 POP POP PUSH1 0x20 PUSH2 0x481 DUP9 DUP3 DUP10 ADD PUSH2 0x3FB JUMP JUMPDEST SWAP5 POP POP PUSH1 0x40 PUSH2 0x492 DUP9 DUP3 DUP10 ADD PUSH2 0x431 JUMP JUMPDEST SWAP4 POP POP PUSH1 0x60 PUSH2 0x4A3 DUP9 DUP3 DUP10 ADD PUSH2 0x431 JUMP JUMPDEST SWAP3 POP POP PUSH1 0x80 PUSH2 0x4B4 DUP9 DUP3 DUP10 ADD PUSH2 0x3E6 JUMP JUMPDEST SWAP2 POP POP SWAP3 SWAP6 POP SWAP3 SWAP6 SWAP1 SWAP4 POP JUMP JUMPDEST PUSH32 0x4E487B7100000000000000000000000000000000000000000000000000000000 PUSH1 0x0 MSTORE PUSH1 0x12 PUSH1 0x4 MSTORE PUSH1 0x24 PUSH1 0x0 REVERT JUMPDEST PUSH32 0x4E487B7100000000000000000000000000000000000000000000000000000000 PUSH1 0x0 MSTORE PUSH1 0x11 PUSH1 0x4 MSTORE PUSH1 0x24 PUSH1 0x0 REVERT JUMPDEST PUSH1 0x0 PUSH2 0x52A DUP3 PUSH2 0x314 JUMP JUMPDEST SWAP2 POP PUSH2 0x535 DUP4 PUSH2 0x314 JUMP JUMPDEST SWAP3 POP DUP3 PUSH2 0x545 JUMPI PUSH2 0x544 PUSH2 0x4C1 JUMP JUMPDEST JUMPDEST PUSH1 0x1 PUSH1 0x0 SUB DUP4 EQ PUSH32 0x8000000000000000000000000000000000000000000000000000000000000000 DUP4 EQ AND ISZERO PUSH2 0x57E JUMPI PUSH2 0x57D PUSH2 0x4F0 JUMP JUMPDEST JUMPDEST DUP3 DUP3 SDIV SWAP1 POP SWAP3 SWAP2 POP POP JUMP JUMPDEST PUSH1 0x0 PUSH2 0x594 DUP3 PUSH2 0x314 JUMP JUMPDEST SWAP2 POP PUSH2 0x59F DUP4 PUSH2 0x314 JUMP JUMPDEST SWAP3 POP DUP3 DUP3 ADD SWAP1 POP DUP3 DUP2 SLT ISZERO PUSH1 0x0 DUP4 SLT AND DUP4 DUP3 SLT PUSH1 0x0 DUP5 SLT ISZERO AND OR ISZERO PUSH2 0x5C7 JUMPI PUSH2 0x5C6 PUSH2 0x4F0 JUMP JUMPDEST JUMPDEST SWAP3 SWAP2 POP POP JUMP INVALID LOG2 PUSH5 0x6970667358 0x22 SLT KECCAK256 0xC1 0xE0 0xB2 0x4D 0x4B JUMPDEST KECCAK256 0x21 LT SELFBALANCE 0xAB 0xC5 DUP10 PUSH27 0x824CC4B072E0D885503A45DC8B6577D6496064736F6C6343000811 STOP CALLER "},"gasEstimates":{"creation":{"codeDepositCost":"307800","executionCost":"73150","totalCost":"380950"},"external":{"average(int256,int256)":"infinite","getLatestPrice1()":"infinite","getLatestPrice2()":"infinite","getLatestPrice3()":"infinite"}},"methodIdentifiers":{"average(int256,int256)":"7f0bb292","getLatestPrice1()":"47cec961","getLatestPrice2()":"c03010ee","getLatestPrice3()":"ba59bda1"}},"storageLayout":{"storage":[{"astId":51,"contract":"contracts/Demo2-LINK.sol:PriceConsumerV3","label":"priceFeed1","offset":0,"slot":"0","type":"t_contract(AggregatorV3Interface)45"},{"astId":54,"contract":"contracts/Demo2-LINK.sol:PriceConsumerV3","label":"priceFeed2","offset":0,"slot":"1","type":"t_contract(AggregatorV3Interface)45"},{"astId":57,"contract":"contracts/Demo2-LINK.sol:PriceConsumerV3","label":"priceFeed3","offset":0,"slot":"2","type":"t_contract(AggregatorV3Interface)45"},{"astId":59,"contract":"contracts/Demo2-LINK.sol:PriceConsumerV3","label":"BTC","offset":0,"slot":"3","type":"t_int256"},{"astId":61,"contract":"contracts/Demo2-LINK.sol:PriceConsumerV3","label":"ETH","offset":0,"slot":"4","type":"t_int256"},{"astId":63,"contract":"contracts/Demo2-LINK.sol:PriceConsumerV3","label":"DAI","offset":0,"slot":"5","type":"t_int256"}],"types":{"t_contract(AggregatorV3Interface)45":{"encoding":"inplace","label":"contract AggregatorV3Interface","numberOfBytes":"20"},"t_int256":{"encoding":"inplace","label":"int256","numberOfBytes":"32"}}},"userdoc":{"kind":"user","methods":{"average(int256,int256)":{"notice":"Return the average of 3 numbers. The result is rounded toward 0"},"constructor":{"notice":"DEMO 1 Network: Goerli Testnet via LINK Proxy IDs Aggregator1: BTC/USD Aggregator2: ETH/USD Aggregator3: DAI/USD"},"getLatestPrice1()":{"notice":"Contract functions return the latest price Variable warnings in Remix are fields that populate from the feed they bark and this will not complie without them"}},"version":1}}}}