{"contracts/Demo2-LINK.sol":{"PriceConsumerV3":{"abi":[{"inputs":[],"stateMutability":"nonpayable","type":"constructor"},{"inputs":[{"internalType":"int256","name":"BTC","type":"int256"},{"internalType":"int256","name":"ETH","type":"int256"}],"name":"average","outputs":[{"internalType":"int256","name":"","type":"int256"}],"stateMutability":"view","type":"function"},{"inputs":[],"name":"getLatestPrice1","outputs":[{"internalType":"int256","name":"","type":"int256"}],"stateMutability":"view","type":"function"},{"inputs":[],"name":"getLatestPrice2","outputs":[{"internalType":"int256","name":"","type":"int256"}],"stateMutability":"view","type":"function"},{"inputs":[],"name":"getLatestPrice3","outputs":[{"internalType":"int256","name":"","type":"int256"}],"stateMutability":"view","type":"function"}],"devdoc":{"kind":"dev","methods":{},"version":1},"evm":{"bytecode":{"linkReferences":{},"object":"608060405234801561001057600080fd5b5073a39434a63a52e749f02807ae27335515ba4b07f76000806101000a81548173ffffffffffffffffffffffffffffffffffffffff021916908373ffffffffffffffffffffffffffffffffffffffff16021790555073d4a33860578de61dbabdc8bfdb98fd742fa7028e600160006101000a81548173ffffffffffffffffffffffffffffffffffffffff021916908373ffffffffffffffffffffffffffffffffffffffff160217905550730d79df66be487753b02d015fb622ded7f0e9798d600260006101000a81548173ffffffffffffffffffffffffffffffffffffffff021916908373ffffffffffffffffffffffffffffffffffffffff1602179055506105f58061011e6000396000f3fe608060405234801561001057600080fd5b506004361061004c5760003560e01c806347cec961146100515780637f0bb2921461006f578063ba59bda11461009f578063c03010ee146100bd575b600080fd5b6100596100db565b604051610066919061031f565b60405180910390f35b6100896004803603810190610084919061036b565b610188565b604051610096919061031f565b60405180910390f35b6100a76101b6565b6040516100b4919061031f565b60405180910390f35b6100c5610257565b6040516100d2919061031f565b60405180910390f35b60008060008060008060008054906101000a900473ffffffffffffffffffffffffffffffffffffffff1673ffffffffffffffffffffffffffffffffffffffff1663feaf968c6040518163ffffffff1660e01b815260040160a060405180830381865afa15801561014f573d6000803e3d6000fd5b505050506040513d601f19601f820116820180604052508101906101739190610438565b94509450945094509450839550505050505090565b600060036005548385181861019d9190610511565b600554838516166101ae919061057b565b905092915050565b600080600260009054906101000a900473ffffffffffffffffffffffffffffffffffffffff1673ffffffffffffffffffffffffffffffffffffffff1663feaf968c6040518163ffffffff1660e01b815260040160a060405180830381865afa158015610226573d6000803e3d6000fd5b505050506040513d601f19601f8201168201806040525081019061024a9190610438565b5050509150508091505090565b600080600080600080600160009054906101000a900473ffffffffffffffffffffffffffffffffffffffff1673ffffffffffffffffffffffffffffffffffffffff1663feaf968c6040518163ffffffff1660e01b815260040160a060405180830381865afa1580156102cd573d6000803e3d6000fd5b505050506040513d601f19601f820116820180604052508101906102f19190610438565b94509450945094509450839550505050505090565b6000819050919050565b61031981610306565b82525050565b60006020820190506103346000830184610310565b92915050565b600080fd5b61034881610306565b811461035357600080fd5b50565b6000813590506103658161033f565b92915050565b600080604083850312156103825761038161033a565b5b600061039085828601610356565b92505060206103a185828601610356565b9150509250929050565b600069ffffffffffffffffffff82169050919050565b6103ca816103ab565b81146103d557600080fd5b50565b6000815190506103e7816103c1565b92915050565b6000815190506103fc8161033f565b92915050565b6000819050919050565b61041581610402565b811461042057600080fd5b50565b6000815190506104328161040c565b92915050565b600080600080600060a086880312156104545761045361033a565b5b6000610462888289016103d8565b9550506020610473888289016103ed565b945050604061048488828901610423565b935050606061049588828901610423565b92505060806104a6888289016103d8565b9150509295509295909350565b7f4e487b7100000000000000000000000000000000000000000000000000000000600052601260045260246000fd5b7f4e487b7100000000000000000000000000000000000000000000000000000000600052601160045260246000fd5b600061051c82610306565b915061052783610306565b925082610537576105366104b3565b5b600160000383147f8000000000000000000000000000000000000000000000000000000000000000831416156105705761056f6104e2565b5b828205905092915050565b600061058682610306565b915061059183610306565b9250828201905082811215600083121683821260008412151617156105b9576105b86104e2565b5b9291505056fea2646970667358221220d740394f3b108ecaeccc0ac4436eeb088fdd2632b734a16ec1d5d0171544469a64736f6c63430008110033","opcodes":"PUSH1 0x80 PUSH1 0x40 MSTORE CALLVALUE DUP1 ISZERO PUSH2 0x10 JUMPI PUSH1 0x0 DUP1 REVERT JUMPDEST POP PUSH20 0xA39434A63A52E749F02807AE27335515BA4B07F7 PUSH1 0x0 DUP1 PUSH2 0x100 EXP DUP2 SLOAD DUP2 PUSH20 0xFFFFFFFFFFFFFFFFFFFFFFFFFFFFFFFFFFFFFFFF MUL NOT AND SWAP1 DUP4 PUSH20 0xFFFFFFFFFFFFFFFFFFFFFFFFFFFFFFFFFFFFFFFF AND MUL OR SWAP1 SSTORE POP PUSH20 0xD4A33860578DE61DBABDC8BFDB98FD742FA7028E PUSH1 0x1 PUSH1 0x0 PUSH2 0x100 EXP DUP2 SLOAD DUP2 PUSH20 0xFFFFFFFFFFFFFFFFFFFFFFFFFFFFFFFFFFFFFFFF MUL NOT AND SWAP1 DUP4 PUSH20 0xFFFFFFFFFFFFFFFFFFFFFFFFFFFFFFFFFFFFFFFF AND MUL OR SWAP1 SSTORE POP PUSH20 0xD79DF66BE487753B02D015FB622DED7F0E9798D PUSH1 0x2 PUSH1 0x0 PUSH2 0x100 EXP DUP2 SLOAD DUP2 PUSH20 0xFFFFFFFFFFFFFFFFFFFFFFFFFFFFFFFFFFFFFFFF MUL NOT AND SWAP1 DUP4 PUSH20 0xFFFFFFFFFFFFFFFFFFFFFFFFFFFFFFFFFFFFFFFF AND MUL OR SWAP1 SSTORE POP PUSH2 0x5F5 DUP1 PUSH2 0x11E PUSH1 0x0 CODECOPY PUSH1 0x0 RETURN INVALID PUSH1 0x80 PUSH1 0x40 MSTORE CALLVALUE DUP1 ISZERO PUSH2 0x10 JUMPI PUSH1 0x0 DUP1 REVERT JUMPDEST POP PUSH1 0x4 CALLDATASIZE LT PUSH2 0x4C JUMPI PUSH1 0x0 CALLDATALOAD PUSH1 0xE0 SHR DUP1 PUSH4 0x47CEC961 EQ PUSH2 0x51 JUMPI DUP1 PUSH4 0x7F0BB292 EQ PUSH2 0x6F JUMPI DUP1 PUSH4 0xBA59BDA1 EQ PUSH2 0x9F JUMPI DUP1 PUSH4 0xC03010EE EQ PUSH2 0xBD JUMPI JUMPDEST PUSH1 0x0 DUP1 REVERT JUMPDEST PUSH2 0x59 PUSH2 0xDB JUMP JUMPDEST PUSH1 0x40 MLOAD PUSH2 0x66 SWAP2 SWAP1 PUSH2 0x31F JUMP JUMPDEST PUSH1 0x40 MLOAD DUP1 SWAP2 SUB SWAP1 RETURN JUMPDEST PUSH2 0x89 PUSH1 0x4 DUP1 CALLDATASIZE SUB DUP2 ADD SWAP1 PUSH2 0x84 SWAP2 SWAP1 PUSH2 0x36B JUMP JUMPDEST PUSH2 0x188 JUMP JUMPDEST PUSH1 0x40 MLOAD PUSH2 0x96 SWAP2 SWAP1 PUSH2 0x31F JUMP JUMPDEST PUSH1 0x40 MLOAD DUP1 SWAP2 SUB SWAP1 RETURN JUMPDEST PUSH2 0xA7 PUSH2 0x1B6 JUMP JUMPDEST PUSH1 0x40 MLOAD PUSH2 0xB4 SWAP2 SWAP1 PUSH2 0x31F JUMP JUMPDEST PUSH1 0x40 MLOAD DUP1 SWAP2 SUB SWAP1 RETURN JUMPDEST PUSH2 0xC5 PUSH2 0x257 JUMP JUMPDEST PUSH1 0x40 MLOAD PUSH2 0xD2 SWAP2 SWAP1 PUSH2 0x31F JUMP JUMPDEST PUSH1 0x40 MLOAD DUP1 SWAP2 SUB SWAP1 RETURN JUMPDEST PUSH1 0x0 DUP1 PUSH1 0x0 DUP1 PUSH1 0x0 DUP1 PUSH1 0x0 DUP1 SLOAD SWAP1 PUSH2 0x100 EXP SWAP1 DIV PUSH20 0xFFFFFFFFFFFFFFFFFFFFFFFFFFFFFFFFFFFFFFFF AND PUSH20 0xFFFFFFFFFFFFFFFFFFFFFFFFFFFFFFFFFFFFFFFF AND PUSH4 0xFEAF968C PUSH1 0x40 MLOAD DUP2 PUSH4 0xFFFFFFFF AND PUSH1 0xE0 SHL DUP2 MSTORE PUSH1 0x4 ADD PUSH1 0xA0 PUSH1 0x40 MLOAD DUP1 DUP4 SUB DUP2 DUP7 GAS STATICCALL ISZERO DUP1 ISZERO PUSH2 0x14F JUMPI RETURNDATASIZE PUSH1 0x0 DUP1 RETURNDATACOPY RETURNDATASIZE PUSH1 0x0 REVERT JUMPDEST POP POP POP POP PUSH1 0x40 MLOAD RETURNDATASIZE PUSH1 0x1F NOT PUSH1 0x1F DUP3 ADD AND DUP3 ADD DUP1 PUSH1 0x40 MSTORE POP DUP2 ADD SWAP1 PUSH2 0x173 SWAP2 SWAP1 PUSH2 0x438 JUMP JUMPDEST SWAP5 POP SWAP5 POP SWAP5 POP SWAP5 POP SWAP5 POP DUP4 SWAP6 POP POP POP POP POP POP SWAP1 JUMP JUMPDEST PUSH1 0x0 PUSH1 0x3 PUSH1 0x5 SLOAD DUP4 DUP6 XOR XOR PUSH2 0x19D SWAP2 SWAP1 PUSH2 0x511 JUMP JUMPDEST PUSH1 0x5 SLOAD DUP4 DUP6 AND AND PUSH2 0x1AE SWAP2 SWAP1 PUSH2 0x57B JUMP JUMPDEST SWAP1 POP SWAP3 SWAP2 POP POP JUMP JUMPDEST PUSH1 0x0 DUP1 PUSH1 0x2 PUSH1 0x0 SWAP1 SLOAD SWAP1 PUSH2 0x100 EXP SWAP1 DIV PUSH20 0xFFFFFFFFFFFFFFFFFFFFFFFFFFFFFFFFFFFFFFFF AND PUSH20 0xFFFFFFFFFFFFFFFFFFFFFFFFFFFFFFFFFFFFFFFF AND PUSH4 0xFEAF968C PUSH1 0x40 MLOAD DUP2 PUSH4 0xFFFFFFFF AND PUSH1 0xE0 SHL DUP2 MSTORE PUSH1 0x4 ADD PUSH1 0xA0 PUSH1 0x40 MLOAD DUP1 DUP4 SUB DUP2 DUP7 GAS STATICCALL ISZERO DUP1 ISZERO PUSH2 0x226 JUMPI RETURNDATASIZE PUSH1 0x0 DUP1 RETURNDATACOPY RETURNDATASIZE PUSH1 0x0 REVERT JUMPDEST POP POP POP POP PUSH1 0x40 MLOAD RETURNDATASIZE PUSH1 0x1F NOT PUSH1 0x1F DUP3 ADD AND DUP3 ADD DUP1 PUSH1 0x40 MSTORE POP DUP2 ADD SWAP1 PUSH2 0x24A SWAP2 SWAP1 PUSH2 0x438 JUMP JUMPDEST POP POP POP SWAP2 POP POP DUP1 SWAP2 POP POP SWAP1 JUMP JUMPDEST PUSH1 0x0 DUP1 PUSH1 0x0 DUP1 PUSH1 0x0 DUP1 PUSH1 0x1 PUSH1 0x0 SWAP1 SLOAD SWAP1 PUSH2 0x100 EXP SWAP1 DIV PUSH20 0xFFFFFFFFFFFFFFFFFFFFFFFFFFFFFFFFFFFFFFFF AND PUSH20 0xFFFFFFFFFFFFFFFFFFFFFFFFFFFFFFFFFFFFFFFF AND PUSH4 0xFEAF968C PUSH1 0x40 MLOAD DUP2 PUSH4 0xFFFFFFFF AND PUSH1 0xE0 SHL DUP2 MSTORE PUSH1 0x4 ADD PUSH1 0xA0 PUSH1 0x40 MLOAD DUP1 DUP4 SUB DUP2 DUP7 GAS STATICCALL ISZERO DUP1 ISZERO PUSH2 0x2CD JUMPI RETURNDATASIZE PUSH1 0x0 DUP1 RETURNDATACOPY RETURNDATASIZE PUSH1 0x0 REVERT JUMPDEST POP POP POP POP PUSH1 0x40 MLOAD RETURNDATASIZE PUSH1 0x1F NOT PUSH1 0x1F DUP3 ADD AND DUP3 ADD DUP1 PUSH1 0x40 MSTORE POP DUP2 ADD SWAP1 PUSH2 0x2F1 SWAP2 SWAP1 PUSH2 0x438 JUMP JUMPDEST SWAP5 POP SWAP5 POP SWAP5 POP SWAP5 POP SWAP5 POP DUP4 SWAP6 POP POP POP POP POP POP SWAP1 JUMP JUMPDEST PUSH1 0x0 DUP2 SWAP1 POP SWAP2 SWAP1 POP JUMP JUMPDEST PUSH2 0x319 DUP2 PUSH2 0x306 JUMP JUMPDEST DUP3 MSTORE POP POP JUMP JUMPDEST PUSH1 0x0 PUSH1 0x20 DUP3 ADD SWAP1 POP PUSH2 0x334 PUSH1 0x0 DUP4 ADD DUP5 PUSH2 0x310 JUMP JUMPDEST SWAP3 SWAP2 POP POP JUMP JUMPDEST PUSH1 0x0 DUP1 REVERT JUMPDEST PUSH2 0x348 DUP2 PUSH2 0x306 JUMP JUMPDEST DUP2 EQ PUSH2 0x353 JUMPI PUSH1 0x0 DUP1 REVERT JUMPDEST POP JUMP JUMPDEST PUSH1 0x0 DUP2 CALLDATALOAD SWAP1 POP PUSH2 0x365 DUP2 PUSH2 0x33F JUMP JUMPDEST SWAP3 SWAP2 POP POP JUMP JUMPDEST PUSH1 0x0 DUP1 PUSH1 0x40 DUP4 DUP6 SUB SLT ISZERO PUSH2 0x382 JUMPI PUSH2 0x381 PUSH2 0x33A JUMP JUMPDEST JUMPDEST PUSH1 0x0 PUSH2 0x390 DUP6 DUP3 DUP7 ADD PUSH2 0x356 JUMP JUMPDEST SWAP3 POP POP PUSH1 0x20 PUSH2 0x3A1 DUP6 DUP3 DUP7 ADD PUSH2 0x356 JUMP JUMPDEST SWAP2 POP POP SWAP3 POP SWAP3 SWAP1 POP JUMP JUMPDEST PUSH1 0x0 PUSH10 0xFFFFFFFFFFFFFFFFFFFF DUP3 AND SWAP1 POP SWAP2 SWAP1 POP JUMP JUMPDEST PUSH2 0x3CA DUP2 PUSH2 0x3AB JUMP JUMPDEST DUP2 EQ PUSH2 0x3D5 JUMPI PUSH1 0x0 DUP1 REVERT JUMPDEST POP JUMP JUMPDEST PUSH1 0x0 DUP2 MLOAD SWAP1 POP PUSH2 0x3E7 DUP2 PUSH2 0x3C1 JUMP JUMPDEST SWAP3 SWAP2 POP POP JUMP JUMPDEST PUSH1 0x0 DUP2 MLOAD SWAP1 POP PUSH2 0x3FC DUP2 PUSH2 0x33F JUMP JUMPDEST SWAP3 SWAP2 POP POP JUMP JUMPDEST PUSH1 0x0 DUP2 SWAP1 POP SWAP2 SWAP1 POP JUMP JUMPDEST PUSH2 0x415 DUP2 PUSH2 0x402 JUMP JUMPDEST DUP2 EQ PUSH2 0x420 JUMPI PUSH1 0x0 DUP1 REVERT JUMPDEST POP JUMP JUMPDEST PUSH1 0x0 DUP2 MLOAD SWAP1 POP PUSH2 0x432 DUP2 PUSH2 0x40C JUMP JUMPDEST SWAP3 SWAP2 POP POP JUMP JUMPDEST PUSH1 0x0 DUP1 PUSH1 0x0 DUP1 PUSH1 0x0 PUSH1 0xA0 DUP7 DUP9 SUB SLT ISZERO PUSH2 0x454 JUMPI PUSH2 0x453 PUSH2 0x33A JUMP JUMPDEST JUMPDEST PUSH1 0x0 PUSH2 0x462 DUP9 DUP3 DUP10 ADD PUSH2 0x3D8 JUMP JUMPDEST SWAP6 POP POP PUSH1 0x20 PUSH2 0x473 DUP9 DUP3 DUP10 ADD PUSH2 0x3ED JUMP JUMPDEST SWAP5 POP POP PUSH1 0x40 PUSH2 0x484 DUP9 DUP3 DUP10 ADD PUSH2 0x423 JUMP JUMPDEST SWAP4 POP POP PUSH1 0x60 PUSH2 0x495 DUP9 DUP3 DUP10 ADD PUSH2 0x423 JUMP JUMPDEST SWAP3 POP POP PUSH1 0x80 PUSH2 0x4A6 DUP9 DUP3 DUP10 ADD PUSH2 0x3D8 JUMP JUMPDEST SWAP2 POP POP SWAP3 SWAP6 POP SWAP3 SWAP6 SWAP1 SWAP4 POP JUMP JUMPDEST PUSH32 0x4E487B7100000000000000000000000000000000000000000000000000000000 PUSH1 0x0 MSTORE PUSH1 0x12 PUSH1 0x4 MSTORE PUSH1 0x24 PUSH1 0x0 REVERT JUMPDEST PUSH32 0x4E487B7100000000000000000000000000000000000000000000000000000000 PUSH1 0x0 MSTORE PUSH1 0x11 PUSH1 0x4 MSTORE PUSH1 0x24 PUSH1 0x0 REVERT JUMPDEST PUSH1 0x0 PUSH2 0x51C DUP3 PUSH2 0x306 JUMP JUMPDEST SWAP2 POP PUSH2 0x527 DUP4 PUSH2 0x306 JUMP JUMPDEST SWAP3 POP DUP3 PUSH2 0x537 JUMPI PUSH2 0x536 PUSH2 0x4B3 JUMP JUMPDEST JUMPDEST PUSH1 0x1 PUSH1 0x0 SUB DUP4 EQ PUSH32 0x8000000000000000000000000000000000000000000000000000000000000000 DUP4 EQ AND ISZERO PUSH2 0x570 JUMPI PUSH2 0x56F PUSH2 0x4E2 JUMP JUMPDEST JUMPDEST DUP3 DUP3 SDIV SWAP1 POP SWAP3 SWAP2 POP POP JUMP JUMPDEST PUSH1 0x0 PUSH2 0x586 DUP3 PUSH2 0x306 JUMP JUMPDEST SWAP2 POP PUSH2 0x591 DUP4 PUSH2 0x306 JUMP JUMPDEST SWAP3 POP DUP3 DUP3 ADD SWAP1 POP DUP3 DUP2 SLT ISZERO PUSH1 0x0 DUP4 SLT AND DUP4 DUP3 SLT PUSH1 0x0 DUP5 SLT ISZERO AND OR ISZERO PUSH2 0x5B9 JUMPI PUSH2 0x5B8 PUSH2 0x4E2 JUMP JUMPDEST JUMPDEST SWAP3 SWAP2 POP POP JUMP INVALID LOG2 PUSH5 0x6970667358 0x22 SLT KECCAK256 0xD7 BLOCKHASH CODECOPY 0x4F EXTCODESIZE LT DUP15 0xCA 0xEC 0xCC EXP 0xC4 NUMBER PUSH15 0xEB088FDD2632B734A16EC1D5D01715 DIFFICULTY CHAINID SWAP11 PUSH5 0x736F6C6343 STOP ADDMOD GT STOP CALLER "},"gasEstimates":{"creation":{"codeDepositCost":"305000","executionCost":"73144","totalCost":"378144"},"external":{"average(int256,int256)":"infinite","getLatestPrice1()":"infinite","getLatestPrice2()":"infinite","getLatestPrice3()":"infinite"}},"methodIdentifiers":{"average(int256,int256)":"7f0bb292","getLatestPrice1()":"47cec961","getLatestPrice2()":"c03010ee","getLatestPrice3()":"ba59bda1"}},"storageLayout":{"storage":[{"astId":788,"contract":"contracts/Demo2-LINK.sol:PriceConsumerV3","label":"priceFeed1","offset":0,"slot":"0","type":"t_contract(AggregatorV3Interface)45"},{"astId":791,"contract":"contracts/Demo2-LINK.sol:PriceConsumerV3","label":"priceFeed2","offset":0,"slot":"1","type":"t_contract(AggregatorV3Interface)45"},{"astId":794,"contract":"contracts/Demo2-LINK.sol:PriceConsumerV3","label":"priceFeed3","offset":0,"slot":"2","type":"t_contract(AggregatorV3Interface)45"},{"astId":796,"contract":"contracts/Demo2-LINK.sol:PriceConsumerV3","label":"BTC","offset":0,"slot":"3","type":"t_int256"},{"astId":798,"contract":"contracts/Demo2-LINK.sol:PriceConsumerV3","label":"ETH","offset":0,"slot":"4","type":"t_int256"},{"astId":800,"contract":"contracts/Demo2-LINK.sol:PriceConsumerV3","label":"DAI","offset":0,"slot":"5","type":"t_int256"}],"types":{"t_contract(AggregatorV3Interface)45":{"encoding":"inplace","label":"contract AggregatorV3Interface","numberOfBytes":"20"},"t_int256":{"encoding":"inplace","label":"int256","numberOfBytes":"32"}}},"userdoc":{"kind":"user","methods":{"average(int256,int256)":{"notice":"Return the average of 3 numbers. The result is rounded toward 0"},"constructor":{"notice":"DEMO 1 Network: Goerli Testnet via LINK Proxy IDs Aggregator1: BTC/USD Aggregator2: ETH/USD Aggregator3: DAI/USD"},"getLatestPrice1()":{"notice":"Contract functions return the latest price Variable warnings in Remix are fields that populate from the feed they bark and this will not complie without them"}},"version":1}}}}