{
  "_format": "hh-sol-artifact-1",
  "contractName": "Vault",
  "sourceName": "contracts/Vault.sol",
  "abi": [
    {
      "inputs": [
        {
          "internalType": "string",
          "name": "name",
          "type": "string"
        },
        {
          "internalType": "string",
          "name": "symbol",
          "type": "string"
        }
      ],
      "stateMutability": "nonpayable",
      "type": "constructor"
    },
    {
      "inputs": [
        {
          "internalType": "uint256",
          "name": "toBorrowAmount",
          "type": "uint256"
        }
      ],
      "name": "borrow",
      "outputs": [],
      "stateMutability": "nonpayable",
      "type": "function"
    },
    {
      "inputs": [],
      "name": "getToken",
      "outputs": [
        {
          "internalType": "contract CAT",
          "name": "",
          "type": "address"
        }
      ],
      "stateMutability": "view",
      "type": "function"
    }
  ],
  "bytecode": "0x60a06040523480156200001157600080fd5b50604051620023a3380380620023a3833981810160405281019062000037919062000251565b600082826040516200004990620000b0565b62000057939291906200038a565b604051809103906000f08015801562000074573d6000803e3d6000fd5b5073ffffffffffffffffffffffffffffffffffffffff1660808173ffffffffffffffffffffffffffffffffffffffff16815250505050620003d5565b611cef80620006b483390190565b6000604051905090565b600080fd5b600080fd5b600080fd5b600080fd5b6000601f19601f8301169050919050565b7f4e487b7100000000000000000000000000000000000000000000000000000000600052604160045260246000fd5b6200012782620000dc565b810181811067ffffffffffffffff82111715620001495762000148620000ed565b5b80604052505050565b60006200015e620000be565b90506200016c82826200011c565b919050565b600067ffffffffffffffff8211156200018f576200018e620000ed565b5b6200019a82620000dc565b9050602081019050919050565b60005b83811015620001c7578082015181840152602081019050620001aa565b60008484015250505050565b6000620001ea620001e48462000171565b62000152565b905082815260208101848484011115620002095762000208620000d7565b5b62000216848285620001a7565b509392505050565b600082601f830112620002365762000235620000d2565b5b815162000248848260208601620001d3565b91505092915050565b600080604083850312156200026b576200026a620000c8565b5b600083015167ffffffffffffffff8111156200028c576200028b620000cd565b5b6200029a858286016200021e565b925050602083015167ffffffffffffffff811115620002be57620002bd620000cd565b5b620002cc858286016200021e565b9150509250929050565b6000819050919050565b6000819050919050565b6000819050919050565b6000620003156200030f6200030984620002d6565b620002ea565b620002e0565b9050919050565b6200032781620002f4565b82525050565b600081519050919050565b600082825260208201905092915050565b600062000356826200032d565b62000362818562000338565b935062000374818560208601620001a7565b6200037f81620000dc565b840191505092915050565b6000606082019050620003a160008301866200031c565b8181036020830152620003b5818562000349565b90508181036040830152620003cb818462000349565b9050949350505050565b6080516102be620003f66000396000818160790152609f01526102be6000f3fe608060405234801561001057600080fd5b50600436106100365760003560e01c806321df0da71461003b578063c5ebeaec14610059575b600080fd5b610043610075565b60405161005091906101ac565b60405180910390f35b610073600480360381019061006e9190610202565b61009d565b005b60007f0000000000000000000000000000000000000000000000000000000000000000905090565b7f000000000000000000000000000000000000000000000000000000000000000073ffffffffffffffffffffffffffffffffffffffff16632daf865d33836040518363ffffffff1660e01b81526004016100f892919061025f565b600060405180830381600087803b15801561011257600080fd5b505af1158015610126573d6000803e3d6000fd5b5050505050565b600073ffffffffffffffffffffffffffffffffffffffff82169050919050565b6000819050919050565b600061017261016d6101688461012d565b61014d565b61012d565b9050919050565b600061018482610157565b9050919050565b600061019682610179565b9050919050565b6101a68161018b565b82525050565b60006020820190506101c1600083018461019d565b92915050565b600080fd5b6000819050919050565b6101df816101cc565b81146101ea57600080fd5b50565b6000813590506101fc816101d6565b92915050565b600060208284031215610218576102176101c7565b5b6000610226848285016101ed565b91505092915050565b600061023a8261012d565b9050919050565b61024a8161022f565b82525050565b610259816101cc565b82525050565b60006040820190506102746000830185610241565b6102816020830184610250565b939250505056fea2646970667358221220630c99cf1468551dff6f4d7c1517e2be0245d450d2e6cd1fca58fbe04d7edb8964736f6c6343000811003360806040523480156200001157600080fd5b5060405162001cef38038062001cef8339818101604052810190620000379190620003ca565b818181600390816200004a9190620006a5565b5080600490816200005c9190620006a5565b5050506200007133846200007a60201b60201c565b505050620008a7565b600073ffffffffffffffffffffffffffffffffffffffff168273ffffffffffffffffffffffffffffffffffffffff1603620000ec576040517f08c379a0000000000000000000000000000000000000000000000000000000008152600401620000e390620007ed565b60405180910390fd5b6200010060008383620001f260201b60201c565b80600260008282546200011491906200083e565b92505081905550806000808473ffffffffffffffffffffffffffffffffffffffff1673ffffffffffffffffffffffffffffffffffffffff16815260200190815260200160002060008282546200016b91906200083e565b925050819055508173ffffffffffffffffffffffffffffffffffffffff16600073ffffffffffffffffffffffffffffffffffffffff167fddf252ad1be2c89b69c2b068fc378daa952ba7f163c4a11628f55a4df523b3ef83604051620001d291906200088a565b60405180910390a3620001ee60008383620001f760201b60201c565b5050565b505050565b505050565b6000604051905090565b600080fd5b600080fd5b6000819050919050565b620002258162000210565b81146200023157600080fd5b50565b60008151905062000245816200021a565b92915050565b600080fd5b600080fd5b6000601f19601f8301169050919050565b7f4e487b7100000000000000000000000000000000000000000000000000000000600052604160045260246000fd5b620002a08262000255565b810181811067ffffffffffffffff82111715620002c257620002c162000266565b5b80604052505050565b6000620002d7620001fc565b9050620002e5828262000295565b919050565b600067ffffffffffffffff82111562000308576200030762000266565b5b620003138262000255565b9050602081019050919050565b60005b838110156200034057808201518184015260208101905062000323565b60008484015250505050565b6000620003636200035d84620002ea565b620002cb565b90508281526020810184848401111562000382576200038162000250565b5b6200038f84828562000320565b509392505050565b600082601f830112620003af57620003ae6200024b565b5b8151620003c18482602086016200034c565b91505092915050565b600080600060608486031215620003e657620003e562000206565b5b6000620003f68682870162000234565b935050602084015167ffffffffffffffff8111156200041a57620004196200020b565b5b620004288682870162000397565b925050604084015167ffffffffffffffff8111156200044c576200044b6200020b565b5b6200045a8682870162000397565b9150509250925092565b600081519050919050565b7f4e487b7100000000000000000000000000000000000000000000000000000000600052602260045260246000fd5b60006002820490506001821680620004b757607f821691505b602082108103620004cd57620004cc6200046f565b5b50919050565b60008190508160005260206000209050919050565b60006020601f8301049050919050565b600082821b905092915050565b600060088302620005377fffffffffffffffffffffffffffffffffffffffffffffffffffffffffffffffff82620004f8565b620005438683620004f8565b95508019841693508086168417925050509392505050565b6000819050919050565b600062000586620005806200057a8462000210565b6200055b565b62000210565b9050919050565b6000819050919050565b620005a28362000565565b620005ba620005b1826200058d565b84845462000505565b825550505050565b600090565b620005d1620005c2565b620005de81848462000597565b505050565b5b818110156200060657620005fa600082620005c7565b600181019050620005e4565b5050565b601f82111562000655576200061f81620004d3565b6200062a84620004e8565b810160208510156200063a578190505b620006526200064985620004e8565b830182620005e3565b50505b505050565b600082821c905092915050565b60006200067a600019846008026200065a565b1980831691505092915050565b600062000695838362000667565b9150826002028217905092915050565b620006b08262000464565b67ffffffffffffffff811115620006cc57620006cb62000266565b5b620006d882546200049e565b620006e58282856200060a565b600060209050601f8311600181146200071d576000841562000708578287015190505b62000714858262000687565b86555062000784565b601f1984166200072d86620004d3565b60005b82811015620007575784890151825560018201915060208501945060208101905062000730565b8683101562000777578489015162000773601f89168262000667565b8355505b6001600288020188555050505b505050505050565b600082825260208201905092915050565b7f45524332303a206d696e7420746f20746865207a65726f206164647265737300600082015250565b6000620007d5601f836200078c565b9150620007e2826200079d565b602082019050919050565b600060208201905081810360008301526200080881620007c6565b9050919050565b7f4e487b7100000000000000000000000000000000000000000000000000000000600052601160045260246000fd5b60006200084b8262000210565b9150620008588362000210565b92508282019050808211156200087357620008726200080f565b5b92915050565b620008848162000210565b82525050565b6000602082019050620008a1600083018462000879565b92915050565b61143880620008b76000396000f3fe608060405234801561001057600080fd5b50600436106100b45760003560e01c80633950935111610071578063395093511461018f57806370a08231146101bf57806395d89b41146101ef578063a457c2d71461020d578063a9059cbb1461023d578063dd62ed3e1461026d576100b4565b806306fdde03146100b9578063095ea7b3146100d757806318160ddd1461010757806323b872dd146101255780632daf865d14610155578063313ce56714610171575b600080fd5b6100c161029d565b6040516100ce9190610ca9565b60405180910390f35b6100f160048036038101906100ec9190610d64565b61032f565b6040516100fe9190610dbf565b60405180910390f35b61010f610352565b60405161011c9190610de9565b60405180910390f35b61013f600480360381019061013a9190610e04565b61035c565b60405161014c9190610dbf565b60405180910390f35b61016f600480360381019061016a9190610d64565b61038b565b005b610179610399565b6040516101869190610e73565b60405180910390f35b6101a960048036038101906101a49190610d64565b6103a2565b6040516101b69190610dbf565b60405180910390f35b6101d960048036038101906101d49190610e8e565b6103d9565b6040516101e69190610de9565b60405180910390f35b6101f7610421565b6040516102049190610ca9565b60405180910390f35b61022760048036038101906102229190610d64565b6104b3565b6040516102349190610dbf565b60405180910390f35b61025760048036038101906102529190610d64565b61052a565b6040516102649190610dbf565b60405180910390f35b61028760048036038101906102829190610ebb565b61054d565b6040516102949190610de9565b60405180910390f35b6060600380546102ac90610f2a565b80601f01602080910402602001604051908101604052809291908181526020018280546102d890610f2a565b80156103255780601f106102fa57610100808354040283529160200191610325565b820191906000526020600020905b81548152906001019060200180831161030857829003601f168201915b5050505050905090565b60008061033a6105d4565b90506103478185856105dc565b600191505092915050565b6000600254905090565b6000806103676105d4565b90506103748582856107a5565b61037f858585610831565b60019150509392505050565b6103958282610ab0565b5050565b60006012905090565b6000806103ad6105d4565b90506103ce8185856103bf858961054d565b6103c99190610f8a565b6105dc565b600191505092915050565b60008060008373ffffffffffffffffffffffffffffffffffffffff1673ffffffffffffffffffffffffffffffffffffffff168152602001908152602001600020549050919050565b60606004805461043090610f2a565b80601f016020809104026020016040519081016040528092919081815260200182805461045c90610f2a565b80156104a95780601f1061047e576101008083540402835291602001916104a9565b820191906000526020600020905b81548152906001019060200180831161048c57829003601f168201915b5050505050905090565b6000806104be6105d4565b905060006104cc828661054d565b905083811015610511576040517f08c379a000000000000000000000000000000000000000000000000000000000815260040161050890611030565b60405180910390fd5b61051e82868684036105dc565b60019250505092915050565b6000806105356105d4565b9050610542818585610831565b600191505092915050565b6000600160008473ffffffffffffffffffffffffffffffffffffffff1673ffffffffffffffffffffffffffffffffffffffff16815260200190815260200160002060008373ffffffffffffffffffffffffffffffffffffffff1673ffffffffffffffffffffffffffffffffffffffff16815260200190815260200160002054905092915050565b600033905090565b600073ffffffffffffffffffffffffffffffffffffffff168373ffffffffffffffffffffffffffffffffffffffff160361064b576040517f08c379a0000000000000000000000000000000000000000000000000000000008152600401610642906110c2565b60405180910390fd5b600073ffffffffffffffffffffffffffffffffffffffff168273ffffffffffffffffffffffffffffffffffffffff16036106ba576040517f08c379a00000000000000000000000000000000000000000000000000000000081526004016106b190611154565b60405180910390fd5b80600160008573ffffffffffffffffffffffffffffffffffffffff1673ffffffffffffffffffffffffffffffffffffffff16815260200190815260200160002060008473ffffffffffffffffffffffffffffffffffffffff1673ffffffffffffffffffffffffffffffffffffffff168152602001908152602001600020819055508173ffffffffffffffffffffffffffffffffffffffff168373ffffffffffffffffffffffffffffffffffffffff167f8c5be1e5ebec7d5bd14f71427d1e84f3dd0314c0f7b2291e5b200ac8c7c3b925836040516107989190610de9565b60405180910390a3505050565b60006107b1848461054d565b90507fffffffffffffffffffffffffffffffffffffffffffffffffffffffffffffffff811461082b578181101561081d576040517f08c379a0000000000000000000000000000000000000000000000000000000008152600401610814906111c0565b60405180910390fd5b61082a84848484036105dc565b5b50505050565b600073ffffffffffffffffffffffffffffffffffffffff168373ffffffffffffffffffffffffffffffffffffffff16036108a0576040517f08c379a000000000000000000000000000000000000000000000000000000000815260040161089790611252565b60405180910390fd5b600073ffffffffffffffffffffffffffffffffffffffff168273ffffffffffffffffffffffffffffffffffffffff160361090f576040517f08c379a0000000000000000000000000000000000000000000000000000000008152600401610906906112e4565b60405180910390fd5b61091a838383610c0f565b60008060008573ffffffffffffffffffffffffffffffffffffffff1673ffffffffffffffffffffffffffffffffffffffff168152602001908152602001600020549050818110156109a0576040517f08c379a000000000000000000000000000000000000000000000000000000000815260040161099790611376565b60405180910390fd5b8181036000808673ffffffffffffffffffffffffffffffffffffffff1673ffffffffffffffffffffffffffffffffffffffff16815260200190815260200160002081905550816000808573ffffffffffffffffffffffffffffffffffffffff1673ffffffffffffffffffffffffffffffffffffffff1681526020019081526020016000206000828254610a339190610f8a565b925050819055508273ffffffffffffffffffffffffffffffffffffffff168473ffffffffffffffffffffffffffffffffffffffff167fddf252ad1be2c89b69c2b068fc378daa952ba7f163c4a11628f55a4df523b3ef84604051610a979190610de9565b60405180910390a3610aaa848484610c14565b50505050565b600073ffffffffffffffffffffffffffffffffffffffff168273ffffffffffffffffffffffffffffffffffffffff1603610b1f576040517f08c379a0000000000000000000000000000000000000000000000000000000008152600401610b16906113e2565b60405180910390fd5b610b2b60008383610c0f565b8060026000828254610b3d9190610f8a565b92505081905550806000808473ffffffffffffffffffffffffffffffffffffffff1673ffffffffffffffffffffffffffffffffffffffff1681526020019081526020016000206000828254610b929190610f8a565b925050819055508173ffffffffffffffffffffffffffffffffffffffff16600073ffffffffffffffffffffffffffffffffffffffff167fddf252ad1be2c89b69c2b068fc378daa952ba7f163c4a11628f55a4df523b3ef83604051610bf79190610de9565b60405180910390a3610c0b60008383610c14565b5050565b505050565b505050565b600081519050919050565b600082825260208201905092915050565b60005b83811015610c53578082015181840152602081019050610c38565b60008484015250505050565b6000601f19601f8301169050919050565b6000610c7b82610c19565b610c858185610c24565b9350610c95818560208601610c35565b610c9e81610c5f565b840191505092915050565b60006020820190508181036000830152610cc38184610c70565b905092915050565b600080fd5b600073ffffffffffffffffffffffffffffffffffffffff82169050919050565b6000610cfb82610cd0565b9050919050565b610d0b81610cf0565b8114610d1657600080fd5b50565b600081359050610d2881610d02565b92915050565b6000819050919050565b610d4181610d2e565b8114610d4c57600080fd5b50565b600081359050610d5e81610d38565b92915050565b60008060408385031215610d7b57610d7a610ccb565b5b6000610d8985828601610d19565b9250506020610d9a85828601610d4f565b9150509250929050565b60008115159050919050565b610db981610da4565b82525050565b6000602082019050610dd46000830184610db0565b92915050565b610de381610d2e565b82525050565b6000602082019050610dfe6000830184610dda565b92915050565b600080600060608486031215610e1d57610e1c610ccb565b5b6000610e2b86828701610d19565b9350506020610e3c86828701610d19565b9250506040610e4d86828701610d4f565b9150509250925092565b600060ff82169050919050565b610e6d81610e57565b82525050565b6000602082019050610e886000830184610e64565b92915050565b600060208284031215610ea457610ea3610ccb565b5b6000610eb284828501610d19565b91505092915050565b60008060408385031215610ed257610ed1610ccb565b5b6000610ee085828601610d19565b9250506020610ef185828601610d19565b9150509250929050565b7f4e487b7100000000000000000000000000000000000000000000000000000000600052602260045260246000fd5b60006002820490506001821680610f4257607f821691505b602082108103610f5557610f54610efb565b5b50919050565b7f4e487b7100000000000000000000000000000000000000000000000000000000600052601160045260246000fd5b6000610f9582610d2e565b9150610fa083610d2e565b9250828201905080821115610fb857610fb7610f5b565b5b92915050565b7f45524332303a2064656372656173656420616c6c6f77616e63652062656c6f7760008201527f207a65726f000000000000000000000000000000000000000000000000000000602082015250565b600061101a602583610c24565b915061102582610fbe565b604082019050919050565b600060208201905081810360008301526110498161100d565b9050919050565b7f45524332303a20617070726f76652066726f6d20746865207a65726f2061646460008201527f7265737300000000000000000000000000000000000000000000000000000000602082015250565b60006110ac602483610c24565b91506110b782611050565b604082019050919050565b600060208201905081810360008301526110db8161109f565b9050919050565b7f45524332303a20617070726f766520746f20746865207a65726f20616464726560008201527f7373000000000000000000000000000000000000000000000000000000000000602082015250565b600061113e602283610c24565b9150611149826110e2565b604082019050919050565b6000602082019050818103600083015261116d81611131565b9050919050565b7f45524332303a20696e73756666696369656e7420616c6c6f77616e6365000000600082015250565b60006111aa601d83610c24565b91506111b582611174565b602082019050919050565b600060208201905081810360008301526111d98161119d565b9050919050565b7f45524332303a207472616e736665722066726f6d20746865207a65726f20616460008201527f6472657373000000000000000000000000000000000000000000000000000000602082015250565b600061123c602583610c24565b9150611247826111e0565b604082019050919050565b6000602082019050818103600083015261126b8161122f565b9050919050565b7f45524332303a207472616e7366657220746f20746865207a65726f206164647260008201527f6573730000000000000000000000000000000000000000000000000000000000602082015250565b60006112ce602383610c24565b91506112d982611272565b604082019050919050565b600060208201905081810360008301526112fd816112c1565b9050919050565b7f45524332303a207472616e7366657220616d6f756e742065786365656473206260008201527f616c616e63650000000000000000000000000000000000000000000000000000602082015250565b6000611360602683610c24565b915061136b82611304565b604082019050919050565b6000602082019050818103600083015261138f81611353565b9050919050565b7f45524332303a206d696e7420746f20746865207a65726f206164647265737300600082015250565b60006113cc601f83610c24565b91506113d782611396565b602082019050919050565b600060208201905081810360008301526113fb816113bf565b905091905056fea2646970667358221220b6dd4c34e597318db74b4d39ad3a841b14117b972ede764f2018b879f428b31364736f6c63430008110033",
  "linkReferences": {},
  "deployedLinkReferences": {}
}