{
  "_format": "hh-sol-artifact-1",
  "contractName": "Vault",
  "sourceName": "contracts/Vault.sol",
  "abi": [
    {
      "inputs": [
        {
          "internalType": "address",
          "name": "commodityAddress",
          "type": "address"
        }
      ],
      "stateMutability": "nonpayable",
      "type": "constructor"
    },
    {
      "inputs": [
        {
          "internalType": "uint256",
          "name": "toBorrowAmount",
          "type": "uint256"
        }
      ],
      "name": "borrow",
      "outputs": [],
      "stateMutability": "nonpayable",
      "type": "function"
    },
    {
      "inputs": [],
      "name": "i_token",
      "outputs": [
        {
          "internalType": "address",
          "name": "",
          "type": "address"
        }
      ],
      "stateMutability": "view",
      "type": "function"
    }
  ],
  "bytecode": "0x60a060405234801561001057600080fd5b506040516102ac3803806102ac833981810160405281019061003291906100cf565b8073ffffffffffffffffffffffffffffffffffffffff1660808173ffffffffffffffffffffffffffffffffffffffff1681525050506100fc565b600080fd5b600073ffffffffffffffffffffffffffffffffffffffff82169050919050565b600061009c82610071565b9050919050565b6100ac81610091565b81146100b757600080fd5b50565b6000815190506100c9816100a3565b92915050565b6000602082840312156100e5576100e461006c565b5b60006100f3848285016100ba565b91505092915050565b6080516101966101166000396000607701526101966000f3fe608060405234801561001057600080fd5b50600436106100365760003560e01c80639608b2321461003b578063c5ebeaec14610059575b600080fd5b610043610075565b60405161005091906100dd565b60405180910390f35b610073600480360381019061006e9190610133565b610099565b005b7f000000000000000000000000000000000000000000000000000000000000000081565b50565b600073ffffffffffffffffffffffffffffffffffffffff82169050919050565b60006100c78261009c565b9050919050565b6100d7816100bc565b82525050565b60006020820190506100f260008301846100ce565b92915050565b600080fd5b6000819050919050565b610110816100fd565b811461011b57600080fd5b50565b60008135905061012d81610107565b92915050565b600060208284031215610149576101486100f8565b5b60006101578482850161011e565b9150509291505056fea2646970667358221220c3bba444fbbcf379c3edc334b09037d6e98f2ad85238f01c92268db8dafa79db64736f6c63430008110033",
  "linkReferences": {},
  "deployedLinkReferences": {}
}