{
  "_format": "hh-sol-artifact-1",
  "contractName": "PriceConsumerV3",
  "sourceName": "contracts/contract-hh2022.sol",
  "abi": [
    {
      "inputs": [],
      "stateMutability": "nonpayable",
      "type": "constructor"
    },
    {
      "inputs": [],
      "name": "getLatestPrice",
      "outputs": [
        {
          "internalType": "int256",
          "name": "",
          "type": "int256"
        }
      ],
      "stateMutability": "view",
      "type": "function"
    }
  ],
  "bytecode": "0x608060405234801561001057600080fd5b5073f3584f4dd3b467e73c2339efd008665a70a4185c6000806101000a81548173ffffffffffffffffffffffffffffffffffffffff021916908373ffffffffffffffffffffffffffffffffffffffff16021790555073214ed9da11d2fbe465a6fc601a91e62ebec1a0d6600160006101000a81548173ffffffffffffffffffffffffffffffffffffffff021916908373ffffffffffffffffffffffffffffffffffffffff16021790555073379589227b15f1a12195d3f2d90bbc9f31f95235600260006101000a81548173ffffffffffffffffffffffffffffffffffffffff021916908373ffffffffffffffffffffffffffffffffffffffff1602179055506102898061011e6000396000f3fe608060405234801561001057600080fd5b506004361061002b5760003560e01c80638e15f47314610030575b600080fd5b61003861004e565b6040516100459190610114565b60405180910390f35b60008060008060008060008054906101000a900473ffffffffffffffffffffffffffffffffffffffff1673ffffffffffffffffffffffffffffffffffffffff1663feaf968c6040518163ffffffff1660e01b815260040160a060405180830381865afa1580156100c2573d6000803e3d6000fd5b505050506040513d601f19601f820116820180604052508101906100e691906101d8565b94509450945094509450839550505050505090565b6000819050919050565b61010e816100fb565b82525050565b60006020820190506101296000830184610105565b92915050565b600080fd5b600069ffffffffffffffffffff82169050919050565b61015381610134565b811461015e57600080fd5b50565b6000815190506101708161014a565b92915050565b61017f816100fb565b811461018a57600080fd5b50565b60008151905061019c81610176565b92915050565b6000819050919050565b6101b5816101a2565b81146101c057600080fd5b50565b6000815190506101d2816101ac565b92915050565b600080600080600060a086880312156101f4576101f361012f565b5b600061020288828901610161565b95505060206102138882890161018d565b9450506040610224888289016101c3565b9350506060610235888289016101c3565b925050608061024688828901610161565b915050929550929590935056fea2646970667358221220a448ebfdf6ec01d17f02e465f74969ff81b4b4a648efc97ae70362c0f54cb40064736f6c63430008110033",
  "linkReferences": {},
  "deployedLinkReferences": {}
}