{
  "_format": "hh-sol-artifact-1",
  "contractName": "PriceConsumerV3",
  "sourceName": "contracts/Demo2-LINK.sol",
  "abi": [
    {
      "inputs": [],
      "stateMutability": "nonpayable",
      "type": "constructor"
    },
    {
      "inputs": [
        {
          "internalType": "int256",
          "name": "BTC",
          "type": "int256"
        },
        {
          "internalType": "int256",
          "name": "ETH",
          "type": "int256"
        }
      ],
      "name": "average",
      "outputs": [
        {
          "internalType": "int256",
          "name": "",
          "type": "int256"
        }
      ],
      "stateMutability": "view",
      "type": "function"
    },
    {
      "inputs": [],
      "name": "getLatestPrice1",
      "outputs": [
        {
          "internalType": "int256",
          "name": "",
          "type": "int256"
        }
      ],
      "stateMutability": "view",
      "type": "function"
    },
    {
      "inputs": [],
      "name": "getLatestPrice2",
      "outputs": [
        {
          "internalType": "int256",
          "name": "",
          "type": "int256"
        }
      ],
      "stateMutability": "view",
      "type": "function"
    },
    {
      "inputs": [],
      "name": "getLatestPrice3",
      "outputs": [
        {
          "internalType": "int256",
          "name": "",
          "type": "int256"
        }
      ],
      "stateMutability": "view",
      "type": "function"
    }
  ],
  "bytecode": "0x608060405234801561001057600080fd5b5073a39434a63a52e749f02807ae27335515ba4b07f76000806101000a81548173ffffffffffffffffffffffffffffffffffffffff021916908373ffffffffffffffffffffffffffffffffffffffff16021790555073d4a33860578de61dbabdc8bfdb98fd742fa7028e600160006101000a81548173ffffffffffffffffffffffffffffffffffffffff021916908373ffffffffffffffffffffffffffffffffffffffff160217905550730d79df66be487753b02d015fb622ded7f0e9798d600260006101000a81548173ffffffffffffffffffffffffffffffffffffffff021916908373ffffffffffffffffffffffffffffffffffffffff1602179055506105f58061011e6000396000f3fe608060405234801561001057600080fd5b506004361061004c5760003560e01c806347cec961146100515780637f0bb2921461006f578063ba59bda11461009f578063c03010ee146100bd575b600080fd5b6100596100db565b604051610066919061031f565b60405180910390f35b6100896004803603810190610084919061036b565b610188565b604051610096919061031f565b60405180910390f35b6100a76101b6565b6040516100b4919061031f565b60405180910390f35b6100c5610257565b6040516100d2919061031f565b60405180910390f35b60008060008060008060008054906101000a900473ffffffffffffffffffffffffffffffffffffffff1673ffffffffffffffffffffffffffffffffffffffff1663feaf968c6040518163ffffffff1660e01b815260040160a060405180830381865afa15801561014f573d6000803e3d6000fd5b505050506040513d601f19601f820116820180604052508101906101739190610438565b94509450945094509450839550505050505090565b600060036005548385181861019d9190610511565b600554838516166101ae919061057b565b905092915050565b600080600260009054906101000a900473ffffffffffffffffffffffffffffffffffffffff1673ffffffffffffffffffffffffffffffffffffffff1663feaf968c6040518163ffffffff1660e01b815260040160a060405180830381865afa158015610226573d6000803e3d6000fd5b505050506040513d601f19601f8201168201806040525081019061024a9190610438565b5050509150508091505090565b600080600080600080600160009054906101000a900473ffffffffffffffffffffffffffffffffffffffff1673ffffffffffffffffffffffffffffffffffffffff1663feaf968c6040518163ffffffff1660e01b815260040160a060405180830381865afa1580156102cd573d6000803e3d6000fd5b505050506040513d601f19601f820116820180604052508101906102f19190610438565b94509450945094509450839550505050505090565b6000819050919050565b61031981610306565b82525050565b60006020820190506103346000830184610310565b92915050565b600080fd5b61034881610306565b811461035357600080fd5b50565b6000813590506103658161033f565b92915050565b600080604083850312156103825761038161033a565b5b600061039085828601610356565b92505060206103a185828601610356565b9150509250929050565b600069ffffffffffffffffffff82169050919050565b6103ca816103ab565b81146103d557600080fd5b50565b6000815190506103e7816103c1565b92915050565b6000815190506103fc8161033f565b92915050565b6000819050919050565b61041581610402565b811461042057600080fd5b50565b6000815190506104328161040c565b92915050565b600080600080600060a086880312156104545761045361033a565b5b6000610462888289016103d8565b9550506020610473888289016103ed565b945050604061048488828901610423565b935050606061049588828901610423565b92505060806104a6888289016103d8565b9150509295509295909350565b7f4e487b7100000000000000000000000000000000000000000000000000000000600052601260045260246000fd5b7f4e487b7100000000000000000000000000000000000000000000000000000000600052601160045260246000fd5b600061051c82610306565b915061052783610306565b925082610537576105366104b3565b5b600160000383147f8000000000000000000000000000000000000000000000000000000000000000831416156105705761056f6104e2565b5b828205905092915050565b600061058682610306565b915061059183610306565b9250828201905082811215600083121683821260008412151617156105b9576105b86104e2565b5b9291505056fea2646970667358221220d740394f3b108ecaeccc0ac4436eeb088fdd2632b734a16ec1d5d0171544469a64736f6c63430008110033",
  "linkReferences": {},
  "deployedLinkReferences": {}
}