{
  "_format": "hh-sol-artifact-1",
  "contractName": "PriceConsumerV3",
  "sourceName": "contracts/Demo2-LINK.sol",
  "abi": [
    {
      "inputs": [],
      "stateMutability": "nonpayable",
      "type": "constructor"
    },
    {
      "inputs": [
        {
          "internalType": "int256",
          "name": "BTC",
          "type": "int256"
        },
        {
          "internalType": "int256",
          "name": "ETH",
          "type": "int256"
        }
      ],
      "name": "average",
      "outputs": [
        {
          "internalType": "int256",
          "name": "",
          "type": "int256"
        }
      ],
      "stateMutability": "view",
      "type": "function"
    },
    {
      "inputs": [],
      "name": "getLatestPrice1",
      "outputs": [
        {
          "internalType": "int256",
          "name": "",
          "type": "int256"
        }
      ],
      "stateMutability": "view",
      "type": "function"
    },
    {
      "inputs": [],
      "name": "getLatestPrice2",
      "outputs": [
        {
          "internalType": "int256",
          "name": "",
          "type": "int256"
        }
      ],
      "stateMutability": "view",
      "type": "function"
    },
    {
      "inputs": [],
      "name": "getLatestPrice3",
      "outputs": [
        {
          "internalType": "int256",
          "name": "",
          "type": "int256"
        }
      ],
      "stateMutability": "view",
      "type": "function"
    }
  ],
  "bytecode": "0x608060405234801561001057600080fd5b5073a39434a63a52e749f02807ae27335515ba4b07f76000806101000a81548173ffffffffffffffffffffffffffffffffffffffff021916908373ffffffffffffffffffffffffffffffffffffffff16021790555073d4a33860578de61dbabdc8bfdb98fd742fa7028e600160006101000a81548173ffffffffffffffffffffffffffffffffffffffff021916908373ffffffffffffffffffffffffffffffffffffffff160217905550730d79df66be487753b02d015fb622ded7f0e9798d600260006101000a81548173ffffffffffffffffffffffffffffffffffffffff021916908373ffffffffffffffffffffffffffffffffffffffff1602179055506106038061011e6000396000f3fe608060405234801561001057600080fd5b506004361061004c5760003560e01c806347cec961146100515780637f0bb2921461006f578063ba59bda11461009f578063c03010ee146100bd575b600080fd5b6100596100db565b604051610066919061032d565b60405180910390f35b61008960048036038101906100849190610379565b610188565b604051610096919061032d565b60405180910390f35b6100a76101b6565b6040516100b4919061032d565b60405180910390f35b6100c5610265565b6040516100d2919061032d565b60405180910390f35b60008060008060008060008054906101000a900473ffffffffffffffffffffffffffffffffffffffff1673ffffffffffffffffffffffffffffffffffffffff1663feaf968c6040518163ffffffff1660e01b815260040160a060405180830381865afa15801561014f573d6000803e3d6000fd5b505050506040513d601f19601f820116820180604052508101906101739190610446565b94509450945094509450839550505050505090565b600060036005548385181861019d919061051f565b600554838516166101ae9190610589565b905092915050565b600080600080600080600260009054906101000a900473ffffffffffffffffffffffffffffffffffffffff1673ffffffffffffffffffffffffffffffffffffffff1663feaf968c6040518163ffffffff1660e01b815260040160a060405180830381865afa15801561022c573d6000803e3d6000fd5b505050506040513d601f19601f820116820180604052508101906102509190610446565b94509450945094509450839550505050505090565b600080600080600080600160009054906101000a900473ffffffffffffffffffffffffffffffffffffffff1673ffffffffffffffffffffffffffffffffffffffff1663feaf968c6040518163ffffffff1660e01b815260040160a060405180830381865afa1580156102db573d6000803e3d6000fd5b505050506040513d601f19601f820116820180604052508101906102ff9190610446565b94509450945094509450839550505050505090565b6000819050919050565b61032781610314565b82525050565b6000602082019050610342600083018461031e565b92915050565b600080fd5b61035681610314565b811461036157600080fd5b50565b6000813590506103738161034d565b92915050565b600080604083850312156103905761038f610348565b5b600061039e85828601610364565b92505060206103af85828601610364565b9150509250929050565b600069ffffffffffffffffffff82169050919050565b6103d8816103b9565b81146103e357600080fd5b50565b6000815190506103f5816103cf565b92915050565b60008151905061040a8161034d565b92915050565b6000819050919050565b61042381610410565b811461042e57600080fd5b50565b6000815190506104408161041a565b92915050565b600080600080600060a0868803121561046257610461610348565b5b6000610470888289016103e6565b9550506020610481888289016103fb565b945050604061049288828901610431565b93505060606104a388828901610431565b92505060806104b4888289016103e6565b9150509295509295909350565b7f4e487b7100000000000000000000000000000000000000000000000000000000600052601260045260246000fd5b7f4e487b7100000000000000000000000000000000000000000000000000000000600052601160045260246000fd5b600061052a82610314565b915061053583610314565b925082610545576105446104c1565b5b600160000383147f80000000000000000000000000000000000000000000000000000000000000008314161561057e5761057d6104f0565b5b828205905092915050565b600061059482610314565b915061059f83610314565b9250828201905082811215600083121683821260008412151617156105c7576105c66104f0565b5b9291505056fea2646970667358221220c1e0b24d4b5b20211047abc5897a824cc4b072e0d885503a45dc8b6577d6496064736f6c63430008110033",
  "linkReferences": {},
  "deployedLinkReferences": {}
}